{"abi":[{"type":"receive","stateMutability":"payable"},{"type":"function","name":"addSwap","inputs":[{"name":"tokenIn","type":"address","internalType":"address"},{"name":"amountIn","type":"uint256","internalType":"uint256"},{"name":"tokenOut","type":"address","internalType":"address"},{"name":"amountOut","type":"uint256","internalType":"uint256"}],"outputs":[],"stateMutability":"nonpayable"},{"type":"function","name":"getAllSwaps","inputs":[],"outputs":[{"name":"","type":"tuple[]","internalType":"struct SwapLedger.Swap[]","components":[{"name":"trader","type":"address","internalType":"address"},{"name":"tokenIn","type":"address","internalType":"address"},{"name":"amountIn","type":"uint256","internalType":"uint256"},{"name":"tokenOut","type":"address","internalType":"address"},{"name":"amountOut","type":"uint256","internalType":"uint256"},{"name":"timestamp","type":"uint256","internalType":"uint256"}]}],"stateMutability":"view"},{"type":"function","name":"getSwap","inputs":[{"name":"index","type":"uint256","internalType":"uint256"}],"outputs":[{"name":"","type":"tuple","internalType":"struct SwapLedger.Swap","components":[{"name":"trader","type":"address","internalType":"address"},{"name":"tokenIn","type":"address","internalType":"address"},{"name":"amountIn","type":"uint256","internalType":"uint256"},{"name":"tokenOut","type":"address","internalType":"address"},{"name":"amountOut","type":"uint256","internalType":"uint256"},{"name":"timestamp","type":"uint256","internalType":"uint256"}]}],"stateMutability":"view"},{"type":"function","name":"getSwapCount","inputs":[],"outputs":[{"name":"","type":"uint256","internalType":"uint256"}],"stateMutability":"view"},{"type":"function","name":"receiveSwap","inputs":[{"name":"tokenOut","type":"address","internalType":"address"},{"name":"amountOut","type":"uint256","internalType":"uint256"}],"outputs":[],"stateMutability":"payable"},{"type":"function","name":"swaps","inputs":[{"name":"","type":"uint256","internalType":"uint256"}],"outputs":[{"name":"trader","type":"address","internalType":"address"},{"name":"tokenIn","type":"address","internalType":"address"},{"name":"amountIn","type":"uint256","internalType":"uint256"},{"name":"tokenOut","type":"address","internalType":"address"},{"name":"amountOut","type":"uint256","internalType":"uint256"},{"name":"timestamp","type":"uint256","internalType":"uint256"}],"stateMutability":"view"},{"type":"event","name":"SwapRecorded","inputs":[{"name":"swapId","type":"uint256","indexed":true,"internalType":"uint256"},{"name":"trader","type":"address","indexed":true,"internalType":"address"},{"name":"tokenIn","type":"address","indexed":true,"internalType":"address"},{"name":"amountIn","type":"uint256","indexed":false,"internalType":"uint256"},{"name":"tokenOut","type":"address","indexed":false,"internalType":"address"},{"name":"amountOut","type":"uint256","indexed":false,"internalType":"uint256"},{"name":"timestamp","type":"uint256","indexed":false,"internalType":"uint256"}],"anonymous":false}],"bytecode":{"object":"0x6080604052348015600e575f5ffd5b506112688061001c5f395ff3fe608060405260043610610058575f3560e01c80634220ada01461026d5780634a0d89ba14610289578063aa9f1ad0146102c5578063d6cfeae0146102ed578063d81671bc14610317578063f09c58291461034157610269565b36610269575f6040518060c001604052803373ffffffffffffffffffffffffffffffffffffffff1681526020015f73ffffffffffffffffffffffffffffffffffffffff1681526020013481526020015f73ffffffffffffffffffffffffffffffffffffffff1681526020015f81526020014281525090505f81908060018154018082558091505060019003905f5260205f2090600602015f909190919091505f820151815f015f6101000a81548173ffffffffffffffffffffffffffffffffffffffff021916908373ffffffffffffffffffffffffffffffffffffffff1602179055506020820151816001015f6101000a81548173ffffffffffffffffffffffffffffffffffffffff021916908373ffffffffffffffffffffffffffffffffffffffff160217905550604082015181600201556060820151816003015f6101000a81548173ffffffffffffffffffffffffffffffffffffffff021916908373ffffffffffffffffffffffffffffffffffffffff1602179055506080820151816004015560a0820151816005015550505f60015f805490506101f99190610c4e565b90505f73ffffffffffffffffffffffffffffffffffffffff163373ffffffffffffffffffffffffffffffffffffffff16827fc65a6afdfcd33342f449658babb76a9d5f4d01810b9943de7ce72cc516d269fd345f5f4260405161025f9493929190610d11565b60405180910390a4005b5f5ffd5b61028760048036038101906102829190610dac565b610382565b005b348015610294575f5ffd5b506102af60048036038101906102aa9190610dea565b6105d4565b6040516102bc9190610eac565b60405180910390f35b3480156102d0575f5ffd5b506102eb60048036038101906102e69190610ec5565b61076f565b005b3480156102f8575f5ffd5b50610301610981565b60405161030e919061104a565b60405180910390f35b348015610322575f5ffd5b5061032b610af8565b604051610338919061106a565b60405180910390f35b34801561034c575f5ffd5b5061036760048036038101906103629190610dea565b610b03565b60405161037996959493929190611083565b60405180910390f35b5f34116103c4576040517f08c379a00000000000000000000000000000000000000000000000000000000081526004016103bb9061113c565b60405180910390fd5b5f6040518060c001604052803373ffffffffffffffffffffffffffffffffffffffff1681526020015f73ffffffffffffffffffffffffffffffffffffffff1681526020013481526020018473ffffffffffffffffffffffffffffffffffffffff1681526020018381526020014281525090505f81908060018154018082558091505060019003905f5260205f2090600602015f909190919091505f820151815f015f6101000a81548173ffffffffffffffffffffffffffffffffffffffff021916908373ffffffffffffffffffffffffffffffffffffffff1602179055506020820151816001015f6101000a81548173ffffffffffffffffffffffffffffffffffffffff021916908373ffffffffffffffffffffffffffffffffffffffff160217905550604082015181600201556060820151816003015f6101000a81548173ffffffffffffffffffffffffffffffffffffffff021916908373ffffffffffffffffffffffffffffffffffffffff1602179055506080820151816004015560a0820151816005015550505f60015f805490506105609190610c4e565b90505f73ffffffffffffffffffffffffffffffffffffffff163373ffffffffffffffffffffffffffffffffffffffff16827fc65a6afdfcd33342f449658babb76a9d5f4d01810b9943de7ce72cc516d269fd348888426040516105c6949392919061115a565b60405180910390a450505050565b6105dc610ba6565b5f805490508210610622576040517f08c379a0000000000000000000000000000000000000000000000000000000008152600401610619906111e7565b60405180910390fd5b5f828154811061063557610634611205565b5b905f5260205f2090600602016040518060c00160405290815f82015f9054906101000a900473ffffffffffffffffffffffffffffffffffffffff1673ffffffffffffffffffffffffffffffffffffffff1673ffffffffffffffffffffffffffffffffffffffff168152602001600182015f9054906101000a900473ffffffffffffffffffffffffffffffffffffffff1673ffffffffffffffffffffffffffffffffffffffff1673ffffffffffffffffffffffffffffffffffffffff16815260200160028201548152602001600382015f9054906101000a900473ffffffffffffffffffffffffffffffffffffffff1673ffffffffffffffffffffffffffffffffffffffff1673ffffffffffffffffffffffffffffffffffffffff168152602001600482015481526020016005820154815250509050919050565b5f6040518060c001604052803373ffffffffffffffffffffffffffffffffffffffff1681526020018673ffffffffffffffffffffffffffffffffffffffff1681526020018581526020018473ffffffffffffffffffffffffffffffffffffffff1681526020018381526020014281525090505f81908060018154018082558091505060019003905f5260205f2090600602015f909190919091505f820151815f015f6101000a81548173ffffffffffffffffffffffffffffffffffffffff021916908373ffffffffffffffffffffffffffffffffffffffff1602179055506020820151816001015f6101000a81548173ffffffffffffffffffffffffffffffffffffffff021916908373ffffffffffffffffffffffffffffffffffffffff160217905550604082015181600201556060820151816003015f6101000a81548173ffffffffffffffffffffffffffffffffffffffff021916908373ffffffffffffffffffffffffffffffffffffffff1602179055506080820151816004015560a0820151816005015550505f60015f8054905061090b9190610c4e565b90508573ffffffffffffffffffffffffffffffffffffffff163373ffffffffffffffffffffffffffffffffffffffff16827fc65a6afdfcd33342f449658babb76a9d5f4d01810b9943de7ce72cc516d269fd88888842604051610971949392919061115a565b60405180910390a4505050505050565b60605f805480602002602001604051908101604052809291908181526020015f905b82821015610aef578382905f5260205f2090600602016040518060c00160405290815f82015f9054906101000a900473ffffffffffffffffffffffffffffffffffffffff1673ffffffffffffffffffffffffffffffffffffffff1673ffffffffffffffffffffffffffffffffffffffff168152602001600182015f9054906101000a900473ffffffffffffffffffffffffffffffffffffffff1673ffffffffffffffffffffffffffffffffffffffff1673ffffffffffffffffffffffffffffffffffffffff16815260200160028201548152602001600382015f9054906101000a900473ffffffffffffffffffffffffffffffffffffffff1673ffffffffffffffffffffffffffffffffffffffff1673ffffffffffffffffffffffffffffffffffffffff16815260200160048201548152602001600582015481525050815260200190600101906109a3565b50505050905090565b5f5f80549050905090565b5f8181548110610b11575f80fd5b905f5260205f2090600602015f91509050805f015f9054906101000a900473ffffffffffffffffffffffffffffffffffffffff1690806001015f9054906101000a900473ffffffffffffffffffffffffffffffffffffffff1690806002015490806003015f9054906101000a900473ffffffffffffffffffffffffffffffffffffffff16908060040154908060050154905086565b6040518060c001604052805f73ffffffffffffffffffffffffffffffffffffffff1681526020015f73ffffffffffffffffffffffffffffffffffffffff1681526020015f81526020015f73ffffffffffffffffffffffffffffffffffffffff1681526020015f81526020015f81525090565b5f819050919050565b7f4e487b71000000000000000000000000000000000000000000000000000000005f52601160045260245ffd5b5f610c5882610c18565b9150610c6383610c18565b9250828203905081811115610c7b57610c7a610c21565b5b92915050565b610c8a81610c18565b82525050565b5f73ffffffffffffffffffffffffffffffffffffffff82169050919050565b5f610cb982610c90565b9050919050565b610cc981610caf565b82525050565b5f819050919050565b5f819050919050565b5f610cfb610cf6610cf184610ccf565b610cd8565b610c18565b9050919050565b610d0b81610ce1565b82525050565b5f608082019050610d245f830187610c81565b610d316020830186610cc0565b610d3e6040830185610d02565b610d4b6060830184610c81565b95945050505050565b5f5ffd5b610d6181610caf565b8114610d6b575f5ffd5b50565b5f81359050610d7c81610d58565b92915050565b610d8b81610c18565b8114610d95575f5ffd5b50565b5f81359050610da681610d82565b92915050565b5f5f60408385031215610dc257610dc1610d54565b5b5f610dcf85828601610d6e565b9250506020610de085828601610d98565b9150509250929050565b5f60208284031215610dff57610dfe610d54565b5b5f610e0c84828501610d98565b91505092915050565b610e1e81610caf565b82525050565b610e2d81610c18565b82525050565b60c082015f820151610e475f850182610e15565b506020820151610e5a6020850182610e15565b506040820151610e6d6040850182610e24565b506060820151610e806060850182610e15565b506080820151610e936080850182610e24565b5060a0820151610ea660a0850182610e24565b50505050565b5f60c082019050610ebf5f830184610e33565b92915050565b5f5f5f5f60808587031215610edd57610edc610d54565b5b5f610eea87828801610d6e565b9450506020610efb87828801610d98565b9350506040610f0c87828801610d6e565b9250506060610f1d87828801610d98565b91505092959194509250565b5f81519050919050565b5f82825260208201905092915050565b5f819050602082019050919050565b60c082015f820151610f665f850182610e15565b506020820151610f796020850182610e15565b506040820151610f8c6040850182610e24565b506060820151610f9f6060850182610e15565b506080820151610fb26080850182610e24565b5060a0820151610fc560a0850182610e24565b50505050565b5f610fd68383610f52565b60c08301905092915050565b5f602082019050919050565b5f610ff882610f29565b6110028185610f33565b935061100d83610f43565b805f5b8381101561103d5781516110248882610fcb565b975061102f83610fe2565b925050600181019050611010565b5085935050505092915050565b5f6020820190508181035f8301526110628184610fee565b905092915050565b5f60208201905061107d5f830184610c81565b92915050565b5f60c0820190506110965f830189610cc0565b6110a36020830188610cc0565b6110b06040830187610c81565b6110bd6060830186610cc0565b6110ca6080830185610c81565b6110d760a0830184610c81565b979650505050505050565b5f82825260208201905092915050565b7f4e6f204554482073656e740000000000000000000000000000000000000000005f82015250565b5f611126600b836110e2565b9150611131826110f2565b602082019050919050565b5f6020820190508181035f8301526111538161111a565b9050919050565b5f60808201905061116d5f830187610c81565b61117a6020830186610cc0565b6111876040830185610c81565b6111946060830184610c81565b95945050505050565b7f5377617020696e646578206f7574206f6620626f756e647300000000000000005f82015250565b5f6111d16018836110e2565b91506111dc8261119d565b602082019050919050565b5f6020820190508181035f8301526111fe816111c5565b9050919050565b7f4e487b71000000000000000000000000000000000000000000000000000000005f52603260045260245ffdfea2646970667358221220e226c40a28cfebd3bb31d2c9a40c67ee542e720456c7fb769194d17c1cfc372b64736f6c634300081c0033","linkReferences":{}},"methodIdentifiers":{"addSwap(address,uint256,address,uint256)":"aa9f1ad0","getAllSwaps()":"d6cfeae0","getSwap(uint256)":"4a0d89ba","getSwapCount()":"d81671bc","receiveSwap(address,uint256)":"4220ada0","swaps(uint256)":"f09c5829"},"id":0}