{
  "_format": "hh-sol-artifact-1",
  "contractName": "Swap",
  "sourceName": "contracts/Swap.sol",
  "abi": [
    {
      "inputs": [],
      "stateMutability": "nonpayable",
      "type": "constructor"
    },
    {
      "inputs": [],
      "name": "AdditionsOverflow",
      "type": "error"
    },
    {
      "inputs": [
        {
          "internalType": "address",
          "name": "target",
          "type": "address"
        }
      ],
      "name": "AddressEmptyCode",
      "type": "error"
    },
    {
      "inputs": [],
      "name": "ApprovalFailed",
      "type": "error"
    },
    {
      "inputs": [],
      "name": "CantBeIdenticalAddresses",
      "type": "error"
    },
    {
      "inputs": [],
      "name": "CantBeZeroAddress",
      "type": "error"
    },
    {
      "inputs": [
        {
          "internalType": "address",
          "name": "implementation",
          "type": "address"
        }
      ],
      "name": "ERC1967InvalidImplementation",
      "type": "error"
    },
    {
      "inputs": [],
      "name": "ERC1967NonPayable",
      "type": "error"
    },
    {
      "inputs": [],
      "name": "FailedCall",
      "type": "error"
    },
    {
      "inputs": [],
      "name": "IdenticalAddresses",
      "type": "error"
    },
    {
      "inputs": [
        {
          "internalType": "string",
          "name": "",
          "type": "string"
        }
      ],
      "name": "InsufficientAmount",
      "type": "error"
    },
    {
      "inputs": [],
      "name": "InsufficientInputAmount",
      "type": "error"
    },
    {
      "inputs": [],
      "name": "InsufficientLiquidity",
      "type": "error"
    },
    {
      "inputs": [],
      "name": "InvalidAddress",
      "type": "error"
    },
    {
      "inputs": [],
      "name": "InvalidInitialization",
      "type": "error"
    },
    {
      "inputs": [],
      "name": "InvalidPath",
      "type": "error"
    },
    {
      "inputs": [],
      "name": "InvalidPathLength",
      "type": "error"
    },
    {
      "inputs": [],
      "name": "MultiplicationsOverflow",
      "type": "error"
    },
    {
      "inputs": [],
      "name": "NotInitializing",
      "type": "error"
    },
    {
      "inputs": [],
      "name": "OffsetOutOfBounds",
      "type": "error"
    },
    {
      "inputs": [
        {
          "internalType": "address",
          "name": "owner",
          "type": "address"
        }
      ],
      "name": "OwnableInvalidOwner",
      "type": "error"
    },
    {
      "inputs": [
        {
          "internalType": "address",
          "name": "account",
          "type": "address"
        }
      ],
      "name": "OwnableUnauthorizedAccount",
      "type": "error"
    },
    {
      "inputs": [
        {
          "internalType": "string",
          "name": "",
          "type": "string"
        }
      ],
      "name": "TransferFailed",
      "type": "error"
    },
    {
      "inputs": [],
      "name": "UUPSUnauthorizedCallContext",
      "type": "error"
    },
    {
      "inputs": [
        {
          "internalType": "bytes32",
          "name": "slot",
          "type": "bytes32"
        }
      ],
      "name": "UUPSUnsupportedProxiableUUID",
      "type": "error"
    },
    {
      "inputs": [],
      "name": "Unauthorized",
      "type": "error"
    },
    {
      "inputs": [],
      "name": "ZeroAddress",
      "type": "error"
    },
    {
      "anonymous": false,
      "inputs": [
        {
          "indexed": false,
          "internalType": "uint64",
          "name": "version",
          "type": "uint64"
        }
      ],
      "name": "Initialized",
      "type": "event"
    },
    {
      "anonymous": false,
      "inputs": [
        {
          "indexed": true,
          "internalType": "address",
          "name": "previousOwner",
          "type": "address"
        },
        {
          "indexed": true,
          "internalType": "address",
          "name": "newOwner",
          "type": "address"
        }
      ],
      "name": "OwnershipTransferred",
      "type": "event"
    },
    {
      "anonymous": false,
      "inputs": [
        {
          "indexed": false,
          "internalType": "address",
          "name": "sender",
          "type": "address"
        },
        {
          "indexed": true,
          "internalType": "bytes",
          "name": "recipient",
          "type": "bytes"
        },
        {
          "indexed": true,
          "internalType": "address",
          "name": "inputToken",
          "type": "address"
        },
        {
          "indexed": true,
          "internalType": "address",
          "name": "targetToken",
          "type": "address"
        },
        {
          "indexed": false,
          "internalType": "uint256",
          "name": "inputAmount",
          "type": "uint256"
        },
        {
          "indexed": false,
          "internalType": "uint256",
          "name": "outputAmount",
          "type": "uint256"
        }
      ],
      "name": "TokenSwap",
      "type": "event"
    },
    {
      "anonymous": false,
      "inputs": [
        {
          "indexed": true,
          "internalType": "address",
          "name": "implementation",
          "type": "address"
        }
      ],
      "name": "Upgraded",
      "type": "event"
    },
    {
      "inputs": [],
      "name": "UPGRADE_INTERFACE_VERSION",
      "outputs": [
        {
          "internalType": "string",
          "name": "",
          "type": "string"
        }
      ],
      "stateMutability": "view",
      "type": "function"
    },
    {
      "inputs": [],
      "name": "gasLimit",
      "outputs": [
        {
          "internalType": "uint256",
          "name": "",
          "type": "uint256"
        }
      ],
      "stateMutability": "view",
      "type": "function"
    },
    {
      "inputs": [],
      "name": "gateway",
      "outputs": [
        {
          "internalType": "contract GatewayZEVM",
          "name": "",
          "type": "address"
        }
      ],
      "stateMutability": "view",
      "type": "function"
    },
    {
      "inputs": [
        {
          "internalType": "address payable",
          "name": "gatewayAddress",
          "type": "address"
        },
        {
          "internalType": "address",
          "name": "uniswapRouterAddress",
          "type": "address"
        },
        {
          "internalType": "uint256",
          "name": "gasLimitAmount",
          "type": "uint256"
        },
        {
          "internalType": "address",
          "name": "owner",
          "type": "address"
        }
      ],
      "name": "initialize",
      "outputs": [],
      "stateMutability": "nonpayable",
      "type": "function"
    },
    {
      "inputs": [
        {
          "components": [
            {
              "internalType": "bytes",
              "name": "origin",
              "type": "bytes"
            },
            {
              "internalType": "address",
              "name": "sender",
              "type": "address"
            },
            {
              "internalType": "uint256",
              "name": "chainID",
              "type": "uint256"
            }
          ],
          "internalType": "struct MessageContext",
          "name": "context",
          "type": "tuple"
        },
        {
          "internalType": "address",
          "name": "zrc20",
          "type": "address"
        },
        {
          "internalType": "uint256",
          "name": "amount",
          "type": "uint256"
        },
        {
          "internalType": "bytes",
          "name": "message",
          "type": "bytes"
        }
      ],
      "name": "onCall",
      "outputs": [],
      "stateMutability": "nonpayable",
      "type": "function"
    },
    {
      "inputs": [
        {
          "components": [
            {
              "internalType": "address",
              "name": "sender",
              "type": "address"
            },
            {
              "internalType": "address",
              "name": "asset",
              "type": "address"
            },
            {
              "internalType": "uint256",
              "name": "amount",
              "type": "uint256"
            },
            {
              "internalType": "bytes",
              "name": "revertMessage",
              "type": "bytes"
            }
          ],
          "internalType": "struct RevertContext",
          "name": "context",
          "type": "tuple"
        }
      ],
      "name": "onRevert",
      "outputs": [],
      "stateMutability": "nonpayable",
      "type": "function"
    },
    {
      "inputs": [],
      "name": "owner",
      "outputs": [
        {
          "internalType": "address",
          "name": "",
          "type": "address"
        }
      ],
      "stateMutability": "view",
      "type": "function"
    },
    {
      "inputs": [],
      "name": "proxiableUUID",
      "outputs": [
        {
          "internalType": "bytes32",
          "name": "",
          "type": "bytes32"
        }
      ],
      "stateMutability": "view",
      "type": "function"
    },
    {
      "inputs": [
        {
          "internalType": "address",
          "name": "inputToken",
          "type": "address"
        },
        {
          "internalType": "address",
          "name": "targetToken",
          "type": "address"
        }
      ],
      "name": "quoteMinInput",
      "outputs": [
        {
          "internalType": "uint256",
          "name": "",
          "type": "uint256"
        }
      ],
      "stateMutability": "view",
      "type": "function"
    },
    {
      "inputs": [],
      "name": "renounceOwnership",
      "outputs": [],
      "stateMutability": "nonpayable",
      "type": "function"
    },
    {
      "inputs": [
        {
          "internalType": "address",
          "name": "inputToken",
          "type": "address"
        },
        {
          "internalType": "uint256",
          "name": "amount",
          "type": "uint256"
        },
        {
          "internalType": "address",
          "name": "targetToken",
          "type": "address"
        },
        {
          "internalType": "bytes",
          "name": "recipient",
          "type": "bytes"
        },
        {
          "internalType": "bool",
          "name": "withdrawFlag",
          "type": "bool"
        }
      ],
      "name": "swap",
      "outputs": [],
      "stateMutability": "nonpayable",
      "type": "function"
    },
    {
      "inputs": [
        {
          "internalType": "address",
          "name": "newOwner",
          "type": "address"
        }
      ],
      "name": "transferOwnership",
      "outputs": [],
      "stateMutability": "nonpayable",
      "type": "function"
    },
    {
      "inputs": [],
      "name": "uniswapRouter",
      "outputs": [
        {
          "internalType": "address",
          "name": "",
          "type": "address"
        }
      ],
      "stateMutability": "view",
      "type": "function"
    },
    {
      "inputs": [
        {
          "internalType": "address",
          "name": "newImplementation",
          "type": "address"
        },
        {
          "internalType": "bytes",
          "name": "data",
          "type": "bytes"
        }
      ],
      "name": "upgradeToAndCall",
      "outputs": [],
      "stateMutability": "payable",
      "type": "function"
    },
    {
      "inputs": [
        {
          "components": [
            {
              "internalType": "address",
              "name": "target",
              "type": "address"
            },
            {
              "internalType": "bytes",
              "name": "to",
              "type": "bytes"
            },
            {
              "internalType": "bool",
              "name": "withdraw",
              "type": "bool"
            }
          ],
          "internalType": "struct Swap.Params",
          "name": "params",
          "type": "tuple"
        },
        {
          "internalType": "address",
          "name": "sender",
          "type": "address"
        },
        {
          "internalType": "uint256",
          "name": "gasFee",
          "type": "uint256"
        },
        {
          "internalType": "address",
          "name": "gasZRC20",
          "type": "address"
        },
        {
          "internalType": "uint256",
          "name": "out",
          "type": "uint256"
        },
        {
          "internalType": "address",
          "name": "inputToken",
          "type": "address"
        }
      ],
      "name": "withdraw",
      "outputs": [],
      "stateMutability": "nonpayable",
      "type": "function"
    }
  ],
  "bytecode": "0x60a06040523073ffffffffffffffffffffffffffffffffffffffff1660809073ffffffffffffffffffffffffffffffffffffffff1681525034801561004357600080fd5b5061005261005760201b60201c565b6101c1565b600061006761015b60201b60201c565b90508060000160089054906101000a900460ff16156100b2576040517ff92ee8a900000000000000000000000000000000000000000000000000000000815260040160405180910390fd5b67ffffffffffffffff80168160000160009054906101000a900467ffffffffffffffff1667ffffffffffffffff16146101585767ffffffffffffffff8160000160006101000a81548167ffffffffffffffff021916908367ffffffffffffffff1602179055507fc7f505b2f371ae2175ee4913f4499e1f2633a7b5936321eed1cdaeb6115181d267ffffffffffffffff60405161014f91906101a6565b60405180910390a15b50565b60007ff0c57e16840df040f15088dc2f81fe391c3923bec73e23a9662efc9c229c6a00905090565b600067ffffffffffffffff82169050919050565b6101a081610183565b82525050565b60006020820190506101bb6000830184610197565b92915050565b608051614c846101ea600039600081816117d20152818161182701526119e20152614c846000f3fe6080604052600436106100e85760003560e01c8063735de9f71161008a578063be20309411610059578063be203094146102af578063c9028a36146102d8578063f2fde38b14610301578063f68016b71461032a576100e8565b8063735de9f71461020557806374718c58146102305780638da5cb5b14610259578063ad3cb1cc14610284576100e8565b806352d1902d116100c657806352d1902d146101715780635bcfd6161461019c578063691fffea146101c5578063715018a6146101ee576100e8565b8063116191b6146100ed5780631b3614b8146101185780634f1ef28614610155575b600080fd5b3480156100f957600080fd5b50610102610355565b60405161010f91906135ef565b60405180910390f35b34801561012457600080fd5b5061013f600480360381019061013a919061365c565b61037b565b60405161014c91906136b5565b60405180910390f35b61016f600480360381019061016a9190613816565b610828565b005b34801561017d57600080fd5b50610186610847565b604051610193919061388b565b60405180910390f35b3480156101a857600080fd5b506101c360048036038101906101be9190613956565b61087a565b005b3480156101d157600080fd5b506101ec60048036038101906101e79190613abc565b610b56565b005b3480156101fa57600080fd5b50610203611046565b005b34801561021157600080fd5b5061021a61105a565b6040516102279190613b74565b60405180910390f35b34801561023c57600080fd5b5061025760048036038101906102529190613b8f565b61107e565b005b34801561026557600080fd5b5061026e611222565b60405161027b9190613b74565b60405180910390f35b34801561029057600080fd5b5061029961125a565b6040516102a69190613ca5565b60405180910390f35b3480156102bb57600080fd5b506102d660048036038101906102d19190613d05565b611293565b005b3480156102e457600080fd5b506102ff60048036038101906102fa9190613d8b565b611553565b005b34801561030d57600080fd5b5061032860048036038101906103239190613dd4565b611744565b005b34801561033657600080fd5b5061033f6117ca565b60405161034c91906136b5565b60405180910390f35b600160009054906101000a900473ffffffffffffffffffffffffffffffffffffffff1681565b60008060008373ffffffffffffffffffffffffffffffffffffffff1663d9eeebed6040518163ffffffff1660e01b81526004016040805180830381865afa1580156103ca573d6000803e3d6000fd5b505050506040513d601f19601f820116820180604052508101906103ee9190613e2b565b915091508173ffffffffffffffffffffffffffffffffffffffff168573ffffffffffffffffffffffffffffffffffffffff160361042f578092505050610822565b60008060009054906101000a900473ffffffffffffffffffffffffffffffffffffffff1673ffffffffffffffffffffffffffffffffffffffff1663ad5c46486040518163ffffffff1660e01b8152600401602060405180830381865afa15801561049d573d6000803e3d6000fd5b505050506040513d601f19601f820116820180604052508101906104c19190613e6b565b905060608173ffffffffffffffffffffffffffffffffffffffff168773ffffffffffffffffffffffffffffffffffffffff16148061052a57508173ffffffffffffffffffffffffffffffffffffffff168473ffffffffffffffffffffffffffffffffffffffff16145b1561061e57600267ffffffffffffffff81111561054a576105496136eb565b5b6040519080825280602002602001820160405280156105785781602001602082028036833780820191505090505b50905086816000815181106105905761058f613e98565b5b602002602001019073ffffffffffffffffffffffffffffffffffffffff16908173ffffffffffffffffffffffffffffffffffffffff168152505083816001815181106105df576105de613e98565b5b602002602001019073ffffffffffffffffffffffffffffffffffffffff16908173ffffffffffffffffffffffffffffffffffffffff1681525050610758565b600367ffffffffffffffff811115610639576106386136eb565b5b6040519080825280602002602001820160405280156106675781602001602082028036833780820191505090505b509050868160008151811061067f5761067e613e98565b5b602002602001019073ffffffffffffffffffffffffffffffffffffffff16908173ffffffffffffffffffffffffffffffffffffffff168152505081816001815181106106ce576106cd613e98565b5b602002602001019073ffffffffffffffffffffffffffffffffffffffff16908173ffffffffffffffffffffffffffffffffffffffff1681525050838160028151811061071d5761071c613e98565b5b602002602001019073ffffffffffffffffffffffffffffffffffffffff16908173ffffffffffffffffffffffffffffffffffffffff16815250505b60008060009054906101000a900473ffffffffffffffffffffffffffffffffffffffff1673ffffffffffffffffffffffffffffffffffffffff16631f00ca7485846040518363ffffffff1660e01b81526004016107b6929190613f85565b600060405180830381865afa1580156107d3573d6000803e3d6000fd5b505050506040513d6000823e3d601f19601f820116820180604052508101906107fc9190614078565b90508060008151811061081257610811613e98565b5b6020026020010151955050505050505b92915050565b6108306117d0565b610839826118b6565b61084382826118c1565b5050565b60006108516119e0565b7f360894a13ba1a3210667c828492db98dca3e2076cc3735a920a3ca505d382bbc60001b905090565b600160009054906101000a900473ffffffffffffffffffffffffffffffffffffffff1673ffffffffffffffffffffffffffffffffffffffff163373ffffffffffffffffffffffffffffffffffffffff1614610901576040517f82b4290000000000000000000000000000000000000000000000000000000000815260040160405180910390fd5b60006040518060600160405280600073ffffffffffffffffffffffffffffffffffffffff16815260200160405180602001604052806000815250815260200160011515815250905061479c86604001351480610962575061208c8660400135145b15610a095761097383836000611a67565b816000019073ffffffffffffffffffffffffffffffffffffffff16908173ffffffffffffffffffffffffffffffffffffffff16815250506109b683836014611a67565b6040516020016109c69190614109565b604051602081830303815290604052816020018190525060298383905010610a04576109f483836028611adc565b8160400190151590811515815250505b610a78565b60008060008585810190610a1d9190614124565b92509250925082846000019073ffffffffffffffffffffffffffffffffffffffff16908173ffffffffffffffffffffffffffffffffffffffff1681525050818460200181905250808460400190151590811515815250505050505b6000806000610a8c88888660000151611b4a565b925092509250836000015173ffffffffffffffffffffffffffffffffffffffff168873ffffffffffffffffffffffffffffffffffffffff168560200151604051610ad691906141da565b60405180910390207f1378f936c555283db402f96fa541a331599d27f8a6ab92dded41091bef19d7078c6020016020810190610b129190613dd4565b8b88604051610b23939291906141f1565b60405180910390a4610b4b848a6020016020810190610b429190613dd4565b8385878d610b56565b505050505050505050565b856040015115610f6657856000015173ffffffffffffffffffffffffffffffffffffffff168373ffffffffffffffffffffffffffffffffffffffff1603610c7d578273ffffffffffffffffffffffffffffffffffffffff1663095ea7b3600160009054906101000a900473ffffffffffffffffffffffffffffffffffffffff168685610be29190614257565b6040518363ffffffff1660e01b8152600401610bff92919061428b565b6020604051808303816000875af1158015610c1e573d6000803e3d6000fd5b505050506040513d601f19601f82011682018060405250810190610c4291906142c9565b610c78576040517f8164f84200000000000000000000000000000000000000000000000000000000815260040160405180910390fd5b610e2e565b8273ffffffffffffffffffffffffffffffffffffffff1663095ea7b3600160009054906101000a900473ffffffffffffffffffffffffffffffffffffffff16866040518363ffffffff1660e01b8152600401610cda92919061428b565b6020604051808303816000875af1158015610cf9573d6000803e3d6000fd5b505050506040513d601f19601f82011682018060405250810190610d1d91906142c9565b610d53576040517f8164f84200000000000000000000000000000000000000000000000000000000815260040160405180910390fd5b856000015173ffffffffffffffffffffffffffffffffffffffff1663095ea7b3600160009054906101000a900473ffffffffffffffffffffffffffffffffffffffff16846040518363ffffffff1660e01b8152600401610db492919061428b565b6020604051808303816000875af1158015610dd3573d6000803e3d6000fd5b505050506040513d601f19601f82011682018060405250810190610df791906142c9565b610e2d576040517f8164f84200000000000000000000000000000000000000000000000000000000815260040160405180910390fd5b5b600160009054906101000a900473ffffffffffffffffffffffffffffffffffffffff1673ffffffffffffffffffffffffffffffffffffffff16637c0dcb5f8760200151604051602001610e8191906141da565b6040516020818303038152906040528489600001516040518060a001604052803073ffffffffffffffffffffffffffffffffffffffff168152602001600115158152602001600073ffffffffffffffffffffffffffffffffffffffff1681526020018b88604051602001610ef69291906142f6565b60405160208183030381529060405281526020016002548152506040518563ffffffff1660e01b8152600401610f2f9493929190614447565b600060405180830381600087803b158015610f4957600080fd5b505af1158015610f5d573d6000803e3d6000fd5b5050505061103e565b6000866000015173ffffffffffffffffffffffffffffffffffffffff1663a9059cbb8860200151610f96906144f8565b60601c856040518363ffffffff1660e01b8152600401610fb792919061428b565b6020604051808303816000875af1158015610fd6573d6000803e3d6000fd5b505050506040513d601f19601f82011682018060405250810190610ffa91906142c9565b90508061103c576040517f12dfddb3000000000000000000000000000000000000000000000000000000008152600401611033906145d1565b60405180910390fd5b505b505050505050565b61104e611cea565b6110586000611d71565b565b60008054906101000a900473ffffffffffffffffffffffffffffffffffffffff1681565b60008573ffffffffffffffffffffffffffffffffffffffff166323b872dd3330886040518463ffffffff1660e01b81526004016110bd939291906145f1565b6020604051808303816000875af11580156110dc573d6000803e3d6000fd5b505050506040513d601f19601f8201168201806040525081019061110091906142c9565b905080611142576040517f12dfddb30000000000000000000000000000000000000000000000000000000081526004016111399061469a565b60405180910390fd5b6000806000611152898989611b4a565b9250925092508673ffffffffffffffffffffffffffffffffffffffff168973ffffffffffffffffffffffffffffffffffffffff168760405161119491906141da565b60405180910390207f1378f936c555283db402f96fa541a331599d27f8a6ab92dded41091bef19d707338c886040516111cf939291906141f1565b60405180910390a461121760405180606001604052808973ffffffffffffffffffffffffffffffffffffffff168152602001888152602001871515815250338385878e610b56565b505050505050505050565b60008061122d611e48565b90508060000160009054906101000a900473ffffffffffffffffffffffffffffffffffffffff1691505090565b6040518060400160405280600581526020017f352e302e3000000000000000000000000000000000000000000000000000000081525081565b600061129d611e70565b905060008160000160089054906101000a900460ff1615905060008260000160009054906101000a900467ffffffffffffffff1690506000808267ffffffffffffffff161480156112eb5750825b9050600060018367ffffffffffffffff16148015611320575060003073ffffffffffffffffffffffffffffffffffffffff163b145b90508115801561132e575080155b15611365576040517ff92ee8a900000000000000000000000000000000000000000000000000000000815260040160405180910390fd5b60018560000160006101000a81548167ffffffffffffffff021916908367ffffffffffffffff16021790555083156113b55760018560000160086101000a81548160ff0219169083151502179055505b600073ffffffffffffffffffffffffffffffffffffffff168973ffffffffffffffffffffffffffffffffffffffff16148061141c5750600073ffffffffffffffffffffffffffffffffffffffff168873ffffffffffffffffffffffffffffffffffffffff16145b15611453576040517fe6c4247b00000000000000000000000000000000000000000000000000000000815260040160405180910390fd5b61145b611e98565b61146486611ea2565b876000806101000a81548173ffffffffffffffffffffffffffffffffffffffff021916908373ffffffffffffffffffffffffffffffffffffffff16021790555088600160006101000a81548173ffffffffffffffffffffffffffffffffffffffff021916908373ffffffffffffffffffffffffffffffffffffffff1602179055508660028190555083156115485760008560000160086101000a81548160ff0219169083151502179055507fc7f505b2f371ae2175ee4913f4499e1f2633a7b5936321eed1cdaeb6115181d2600160405161153f9190614709565b60405180910390a15b505050505050505050565b600160009054906101000a900473ffffffffffffffffffffffffffffffffffffffff1673ffffffffffffffffffffffffffffffffffffffff163373ffffffffffffffffffffffffffffffffffffffff16146115da576040517f82b4290000000000000000000000000000000000000000000000000000000000815260040160405180910390fd5b6000808280606001906115ed9190614733565b8101906115fa9190614796565b9150915060006116218460200160208101906116169190613dd4565b856040013584611b4a565b50509050600160009054906101000a900473ffffffffffffffffffffffffffffffffffffffff1673ffffffffffffffffffffffffffffffffffffffff16637c0dcb5f846040516020016116749190614109565b60405160208183030381529060405283856040518060a001604052808973ffffffffffffffffffffffffffffffffffffffff168152602001600015158152602001600073ffffffffffffffffffffffffffffffffffffffff1681526020016040518060200160405280600081525081526020016002548152506040518563ffffffff1660e01b815260040161170c9493929190614447565b600060405180830381600087803b15801561172657600080fd5b505af115801561173a573d6000803e3d6000fd5b5050505050505050565b61174c611cea565b600073ffffffffffffffffffffffffffffffffffffffff168173ffffffffffffffffffffffffffffffffffffffff16036117be5760006040517f1e4fbdf70000000000000000000000000000000000000000000000000000000081526004016117b59190613b74565b60405180910390fd5b6117c781611d71565b50565b60025481565b7f000000000000000000000000000000000000000000000000000000000000000073ffffffffffffffffffffffffffffffffffffffff163073ffffffffffffffffffffffffffffffffffffffff16148061187d57507f000000000000000000000000000000000000000000000000000000000000000073ffffffffffffffffffffffffffffffffffffffff16611864611eb6565b73ffffffffffffffffffffffffffffffffffffffff1614155b156118b4576040517fe07c8dba00000000000000000000000000000000000000000000000000000000815260040160405180910390fd5b565b6118be611cea565b50565b8173ffffffffffffffffffffffffffffffffffffffff166352d1902d6040518163ffffffff1660e01b8152600401602060405180830381865afa92505050801561192957506040513d601f19601f820116820180604052508101906119269190614802565b60015b61196a57816040517f4c9c8ce30000000000000000000000000000000000000000000000000000000081526004016119619190613b74565b60405180910390fd5b7f360894a13ba1a3210667c828492db98dca3e2076cc3735a920a3ca505d382bbc60001b81146119d157806040517faa1d49a40000000000000000000000000000000000000000000000000000000081526004016119c8919061388b565b60405180910390fd5b6119db8383611f0d565b505050565b7f000000000000000000000000000000000000000000000000000000000000000073ffffffffffffffffffffffffffffffffffffffff163073ffffffffffffffffffffffffffffffffffffffff1614611a65576040517fe07c8dba00000000000000000000000000000000000000000000000000000000815260040160405180910390fd5b565b60008084848490601486611a7b9190614257565b92611a8893929190614839565b8080601f016020809104026020016040519081016040528093929190818152602001838380828437600081840152601f19601f82011690508083019250505050505050905060148101519150509392505050565b6000838390508210611b1a576040517f9605a01000000000000000000000000000000000000000000000000000000000815260040160405180910390fd5b6000848484818110611b2f57611b2e613e98565b5b9050013560f81c60f81b60f81c60ff16141590509392505050565b60008060008060008060008773ffffffffffffffffffffffffffffffffffffffff1663d9eeebed6040518163ffffffff1660e01b81526004016040805180830381865afa158015611b9f573d6000803e3d6000fd5b505050506040513d601f19601f82011682018060405250810190611bc39190613e2b565b80935081945050506000611bd78b8a61037b565b9050808a1015611c1c576040517f4817ec2e000000000000000000000000000000000000000000000000000000008152600401611c139061490c565b60405180910390fd5b8a73ffffffffffffffffffffffffffffffffffffffff168473ffffffffffffffffffffffffffffffffffffffff1603611c6257828a611c5b919061492c565b9150611ca0565b611c8f60008054906101000a900473ffffffffffffffffffffffffffffffffffffffff168c85878e611f80565b9450848a611c9d919061492c565b91505b6000611cd060008054906101000a900473ffffffffffffffffffffffffffffffffffffffff168d858d60006123ef565b905080858598509850985050505050505093509350939050565b611cf26128db565b73ffffffffffffffffffffffffffffffffffffffff16611d10611222565b73ffffffffffffffffffffffffffffffffffffffff1614611d6f57611d336128db565b6040517f118cdaa7000000000000000000000000000000000000000000000000000000008152600401611d669190613b74565b60405180910390fd5b565b6000611d7b611e48565b905060008160000160009054906101000a900473ffffffffffffffffffffffffffffffffffffffff169050828260000160006101000a81548173ffffffffffffffffffffffffffffffffffffffff021916908373ffffffffffffffffffffffffffffffffffffffff1602179055508273ffffffffffffffffffffffffffffffffffffffff168173ffffffffffffffffffffffffffffffffffffffff167f8be0079c531659141344cd1fd0a4f28419497f9722a3daafe3b4186f6b6457e060405160405180910390a3505050565b60007f9016d09d72d40fdae2fd8ceac6b6234c7706214fd39c1cd1e609a0528c199300905090565b60007ff0c57e16840df040f15088dc2f81fe391c3923bec73e23a9662efc9c229c6a00905090565b611ea06128e3565b565b611eaa6128e3565b611eb381612923565b50565b6000611ee47f360894a13ba1a3210667c828492db98dca3e2076cc3735a920a3ca505d382bbc60001b6129a9565b60000160009054906101000a900473ffffffffffffffffffffffffffffffffffffffff16905090565b611f16826129b3565b8173ffffffffffffffffffffffffffffffffffffffff167fbc7cd75a20ee27fd9adebab32041f755214dbc6bffa90cc0225b39da2e5c2d3b60405160405180910390a2600081511115611f7357611f6d8282612a80565b50611f7c565b611f7b612b04565b5b5050565b6000808673ffffffffffffffffffffffffffffffffffffffff1663c45a01556040518163ffffffff1660e01b8152600401602060405180830381865afa158015611fce573d6000803e3d6000fd5b505050506040513d601f19601f82011682018060405250810190611ff29190613e6b565b905060008773ffffffffffffffffffffffffffffffffffffffff1663ad5c46486040518163ffffffff1660e01b8152600401602060405180830381865afa158015612041573d6000803e3d6000fd5b505050506040513d601f19601f820116820180604052508101906120659190613e6b565b90506000612074838988612b41565b90506060811561216d57600267ffffffffffffffff811115612099576120986136eb565b5b6040519080825280602002602001820160405280156120c75781602001602082028036833780820191505090505b50905088816000815181106120df576120de613e98565b5b602002602001019073ffffffffffffffffffffffffffffffffffffffff16908173ffffffffffffffffffffffffffffffffffffffff1681525050868160018151811061212e5761212d613e98565b5b602002602001019073ffffffffffffffffffffffffffffffffffffffff16908173ffffffffffffffffffffffffffffffffffffffff16815250506122a7565b600367ffffffffffffffff811115612188576121876136eb565b5b6040519080825280602002602001820160405280156121b65781602001602082028036833780820191505090505b50905088816000815181106121ce576121cd613e98565b5b602002602001019073ffffffffffffffffffffffffffffffffffffffff16908173ffffffffffffffffffffffffffffffffffffffff1681525050828160018151811061221d5761221c613e98565b5b602002602001019073ffffffffffffffffffffffffffffffffffffffff16908173ffffffffffffffffffffffffffffffffffffffff1681525050868160028151811061226c5761226b613e98565b5b602002602001019073ffffffffffffffffffffffffffffffffffffffff16908173ffffffffffffffffffffffffffffffffffffffff16815250505b8873ffffffffffffffffffffffffffffffffffffffff1663095ea7b38b886040518363ffffffff1660e01b81526004016122e292919061428b565b6020604051808303816000875af1158015612301573d6000803e3d6000fd5b505050506040513d601f19601f8201168201806040525081019061232591906142c9565b5060008a73ffffffffffffffffffffffffffffffffffffffff16638803dbee8a89853060c861ffff16426123599190614257565b6040518663ffffffff1660e01b8152600401612379959493929190614960565b6000604051808303816000875af1158015612398573d6000803e3d6000fd5b505050506040513d6000823e3d601f19601f820116820180604052508101906123c19190614078565b9050806000815181106123d7576123d6613e98565b5b60200260200101519550505050505095945050505050565b6000808673ffffffffffffffffffffffffffffffffffffffff1663c45a01556040518163ffffffff1660e01b8152600401602060405180830381865afa15801561243d573d6000803e3d6000fd5b505050506040513d601f19601f820116820180604052508101906124619190613e6b565b905060008773ffffffffffffffffffffffffffffffffffffffff1663ad5c46486040518163ffffffff1660e01b8152600401602060405180830381865afa1580156124b0573d6000803e3d6000fd5b505050506040513d601f19601f820116820180604052508101906124d49190613e6b565b90506060600267ffffffffffffffff8111156124f3576124f26136eb565b5b6040519080825280602002602001820160405280156125215781602001602082028036833780820191505090505b509050878160008151811061253957612538613e98565b5b602002602001019073ffffffffffffffffffffffffffffffffffffffff16908173ffffffffffffffffffffffffffffffffffffffff1681525050858160018151811061258857612587613e98565b5b602002602001019073ffffffffffffffffffffffffffffffffffffffff16908173ffffffffffffffffffffffffffffffffffffffff168152505060006125d084898885612c5d565b905060008373ffffffffffffffffffffffffffffffffffffffff168873ffffffffffffffffffffffffffffffffffffffff16148061263957508373ffffffffffffffffffffffffffffffffffffffff168a73ffffffffffffffffffffffffffffffffffffffff16145b905081158015612647575080155b1561278657600367ffffffffffffffff811115612667576126666136eb565b5b6040519080825280602002602001820160405280156126955781602001602082028036833780820191505090505b50925089836000815181106126ad576126ac613e98565b5b602002602001019073ffffffffffffffffffffffffffffffffffffffff16908173ffffffffffffffffffffffffffffffffffffffff168152505083836001815181106126fc576126fb613e98565b5b602002602001019073ffffffffffffffffffffffffffffffffffffffff16908173ffffffffffffffffffffffffffffffffffffffff1681525050878360028151811061274b5761274a613e98565b5b602002602001019073ffffffffffffffffffffffffffffffffffffffff16908173ffffffffffffffffffffffffffffffffffffffff16815250505b8973ffffffffffffffffffffffffffffffffffffffff1663095ea7b38c8b6040518363ffffffff1660e01b81526004016127c192919061428b565b6020604051808303816000875af11580156127e0573d6000803e3d6000fd5b505050506040513d601f19601f8201168201806040525081019061280491906142c9565b5060008b73ffffffffffffffffffffffffffffffffffffffff166338ed17398b8a873060c861ffff16426128389190614257565b6040518663ffffffff1660e01b8152600401612858959493929190614960565b6000604051808303816000875af1158015612877573d6000803e3d6000fd5b505050506040513d6000823e3d601f19601f820116820180604052508101906128a09190614078565b905080600185516128b1919061492c565b815181106128c2576128c1613e98565b5b6020026020010151965050505050505095945050505050565b600033905090565b6128eb612d35565b612921576040517fd7e6bcf800000000000000000000000000000000000000000000000000000000815260040160405180910390fd5b565b61292b6128e3565b600073ffffffffffffffffffffffffffffffffffffffff168173ffffffffffffffffffffffffffffffffffffffff160361299d5760006040517f1e4fbdf70000000000000000000000000000000000000000000000000000000081526004016129949190613b74565b60405180910390fd5b6129a681611d71565b50565b6000819050919050565b60008173ffffffffffffffffffffffffffffffffffffffff163b03612a0f57806040517f4c9c8ce3000000000000000000000000000000000000000000000000000000008152600401612a069190613b74565b60405180910390fd5b80612a3c7f360894a13ba1a3210667c828492db98dca3e2076cc3735a920a3ca505d382bbc60001b6129a9565b60000160006101000a81548173ffffffffffffffffffffffffffffffffffffffff021916908373ffffffffffffffffffffffffffffffffffffffff16021790555050565b60606000808473ffffffffffffffffffffffffffffffffffffffff1684604051612aaa91906141da565b600060405180830381855af49150503d8060008114612ae5576040519150601f19603f3d011682016040523d82523d6000602084013e612aea565b606091505b5091509150612afa858383612d55565b9250505092915050565b6000341115612b3f576040517fb398979f00000000000000000000000000000000000000000000000000000000815260040160405180910390fd5b565b600080612b4f858585612de4565b905060008473ffffffffffffffffffffffffffffffffffffffff166370a08231836040518263ffffffff1660e01b8152600401612b8c9190613b74565b602060405180830381865afa158015612ba9573d6000803e3d6000fd5b505050506040513d601f19601f82011682018060405250810190612bcd91906149ba565b118015612c53575060008373ffffffffffffffffffffffffffffffffffffffff166370a08231836040518263ffffffff1660e01b8152600401612c109190613b74565b602060405180830381865afa158015612c2d573d6000803e3d6000fd5b505050506040513d601f19601f82011682018060405250810190612c5191906149ba565b115b9150509392505050565b60006002825114612c9a576040517fcd608bfe00000000000000000000000000000000000000000000000000000000815260040160405180910390fd5b6000612cdd8684600081518110612cb457612cb3613e98565b5b602002602001015185600181518110612cd057612ccf613e98565b5b6020026020010151612b41565b905080612cee576000915050612d2d565b6000612cfb878786612e56565b9050848160018351612d0d919061492c565b81518110612d1e57612d1d613e98565b5b60200260200101511015925050505b949350505050565b6000612d3f611e70565b60000160089054906101000a900460ff16905090565b606082612d6a57612d6582612fd2565b612ddc565b60008251148015612d92575060008473ffffffffffffffffffffffffffffffffffffffff163b145b15612dd457836040517f9996b315000000000000000000000000000000000000000000000000000000008152600401612dcb9190613b74565b60405180910390fd5b819050612ddd565b5b9392505050565b6000806000612df38585613017565b91509150858282604051602001612e0b9291906149e7565b60405160208183030381529060405280519060200120604051602001612e32929190614ad7565b6040516020818303038152906040528051906020012060001c925050509392505050565b6060600282511015612e94576040517f20db826700000000000000000000000000000000000000000000000000000000815260040160405180910390fd5b815167ffffffffffffffff811115612eaf57612eae6136eb565b5b604051908082528060200260200182016040528015612edd5781602001602082028036833780820191505090505b5090508281600081518110612ef557612ef4613e98565b5b60200260200101818152505060005b60018351612f12919061492c565b811015612fca57600080612f6787868581518110612f3357612f32613e98565b5b602002602001015187600187612f499190614257565b81518110612f5a57612f59613e98565b5b6020026020010151613131565b91509150612f90848481518110612f8157612f80613e98565b5b60200260200101518383613234565b84600185612f9e9190614257565b81518110612faf57612fae613e98565b5b60200260200101818152505050508080600101915050612f04565b509392505050565b600081511115612fe55780518082602001fd5b6040517fd6bda27500000000000000000000000000000000000000000000000000000000815260040160405180910390fd5b6000808273ffffffffffffffffffffffffffffffffffffffff168473ffffffffffffffffffffffffffffffffffffffff160361307f576040517fcb1e7cfe00000000000000000000000000000000000000000000000000000000815260040160405180910390fd5b8273ffffffffffffffffffffffffffffffffffffffff168473ffffffffffffffffffffffffffffffffffffffff16106130b95782846130bc565b83835b8092508193505050600073ffffffffffffffffffffffffffffffffffffffff168273ffffffffffffffffffffffffffffffffffffffff160361312a576040517f78b507da00000000000000000000000000000000000000000000000000000000815260040160405180910390fd5b9250929050565b60008060006131408585613328565b509050600080613151888888613442565b73ffffffffffffffffffffffffffffffffffffffff16630902f1ac6040518163ffffffff1660e01b8152600401606060405180830381865afa15801561319b573d6000803e3d6000fd5b505050506040513d601f19601f820116820180604052508101906131bf9190614b9b565b506dffffffffffffffffffffffffffff1691506dffffffffffffffffffffffffffff1691508273ffffffffffffffffffffffffffffffffffffffff168773ffffffffffffffffffffffffffffffffffffffff161461321e578082613221565b81815b8095508196505050505050935093915050565b600080840361326f576040517f098fb56100000000000000000000000000000000000000000000000000000000815260040160405180910390fd5b600083148061327e5750600082145b156132b5576040517fbb55fd2700000000000000000000000000000000000000000000000000000000815260040160405180910390fd5b60006132cc6103e5866134c990919063ffffffff16565b905060006132e384836134c990919063ffffffff16565b9050600061330e836133006103e8896134c990919063ffffffff16565b61352990919063ffffffff16565b9050808261331c9190614c1d565b93505050509392505050565b6000808273ffffffffffffffffffffffffffffffffffffffff168473ffffffffffffffffffffffffffffffffffffffff1603613390576040517fbd969eb000000000000000000000000000000000000000000000000000000000815260040160405180910390fd5b8273ffffffffffffffffffffffffffffffffffffffff168473ffffffffffffffffffffffffffffffffffffffff16106133ca5782846133cd565b83835b8092508193505050600073ffffffffffffffffffffffffffffffffffffffff168273ffffffffffffffffffffffffffffffffffffffff160361343b576040517fd92e233d00000000000000000000000000000000000000000000000000000000815260040160405180910390fd5b9250929050565b60008373ffffffffffffffffffffffffffffffffffffffff1663e6a4390584846040518363ffffffff1660e01b815260040161347f9291906142f6565b602060405180830381865afa15801561349c573d6000803e3d6000fd5b505050506040513d601f19601f820116820180604052508101906134c09190613e6b565b90509392505050565b6000808314806134ed57508183838502925082816134ea576134e9614bee565b5b04145b613523576040517f5797276a00000000000000000000000000000000000000000000000000000000815260040160405180910390fd5b92915050565b600081830190508281101561356a576040517fa259879500000000000000000000000000000000000000000000000000000000815260040160405180910390fd5b92915050565b600073ffffffffffffffffffffffffffffffffffffffff82169050919050565b6000819050919050565b60006135b56135b06135ab84613570565b613590565b613570565b9050919050565b60006135c78261359a565b9050919050565b60006135d9826135bc565b9050919050565b6135e9816135ce565b82525050565b600060208201905061360460008301846135e0565b92915050565b6000604051905090565b600080fd5b600080fd5b600061362982613570565b9050919050565b6136398161361e565b811461364457600080fd5b50565b60008135905061365681613630565b92915050565b6000806040838503121561367357613672613614565b5b600061368185828601613647565b925050602061369285828601613647565b9150509250929050565b6000819050919050565b6136af8161369c565b82525050565b60006020820190506136ca60008301846136a6565b92915050565b600080fd5b600080fd5b6000601f19601f8301169050919050565b7f4e487b7100000000000000000000000000000000000000000000000000000000600052604160045260246000fd5b613723826136da565b810181811067ffffffffffffffff82111715613742576137416136eb565b5b80604052505050565b600061375561360a565b9050613761828261371a565b919050565b600067ffffffffffffffff821115613781576137806136eb565b5b61378a826136da565b9050602081019050919050565b82818337600083830152505050565b60006137b96137b484613766565b61374b565b9050828152602081018484840111156137d5576137d46136d5565b5b6137e0848285613797565b509392505050565b600082601f8301126137fd576137fc6136d0565b5b813561380d8482602086016137a6565b91505092915050565b6000806040838503121561382d5761382c613614565b5b600061383b85828601613647565b925050602083013567ffffffffffffffff81111561385c5761385b613619565b5b613868858286016137e8565b9150509250929050565b6000819050919050565b61388581613872565b82525050565b60006020820190506138a0600083018461387c565b92915050565b600080fd5b6000606082840312156138c1576138c06138a6565b5b81905092915050565b6138d38161369c565b81146138de57600080fd5b50565b6000813590506138f0816138ca565b92915050565b600080fd5b600080fd5b60008083601f840112613916576139156136d0565b5b8235905067ffffffffffffffff811115613933576139326138f6565b5b60208301915083600182028301111561394f5761394e6138fb565b5b9250929050565b60008060008060006080868803121561397257613971613614565b5b600086013567ffffffffffffffff8111156139905761398f613619565b5b61399c888289016138ab565b95505060206139ad88828901613647565b94505060406139be888289016138e1565b935050606086013567ffffffffffffffff8111156139df576139de613619565b5b6139eb88828901613900565b92509250509295509295909350565b600080fd5b600080fd5b60008115159050919050565b613a1981613a04565b8114613a2457600080fd5b50565b600081359050613a3681613a10565b92915050565b600060608284031215613a5257613a516139fa565b5b613a5c606061374b565b90506000613a6c84828501613647565b600083015250602082013567ffffffffffffffff811115613a9057613a8f6139ff565b5b613a9c848285016137e8565b6020830152506040613ab084828501613a27565b60408301525092915050565b60008060008060008060c08789031215613ad957613ad8613614565b5b600087013567ffffffffffffffff811115613af757613af6613619565b5b613b0389828a01613a3c565b9650506020613b1489828a01613647565b9550506040613b2589828a016138e1565b9450506060613b3689828a01613647565b9350506080613b4789828a016138e1565b92505060a0613b5889828a01613647565b9150509295509295509295565b613b6e8161361e565b82525050565b6000602082019050613b896000830184613b65565b92915050565b600080600080600060a08688031215613bab57613baa613614565b5b6000613bb988828901613647565b9550506020613bca888289016138e1565b9450506040613bdb88828901613647565b935050606086013567ffffffffffffffff811115613bfc57613bfb613619565b5b613c08888289016137e8565b9250506080613c1988828901613a27565b9150509295509295909350565b600081519050919050565b600082825260208201905092915050565b60005b83811015613c60578082015181840152602081019050613c45565b60008484015250505050565b6000613c7782613c26565b613c818185613c31565b9350613c91818560208601613c42565b613c9a816136da565b840191505092915050565b60006020820190508181036000830152613cbf8184613c6c565b905092915050565b6000613cd282613570565b9050919050565b613ce281613cc7565b8114613ced57600080fd5b50565b600081359050613cff81613cd9565b92915050565b60008060008060808587031215613d1f57613d1e613614565b5b6000613d2d87828801613cf0565b9450506020613d3e87828801613647565b9350506040613d4f878288016138e1565b9250506060613d6087828801613647565b91505092959194509250565b600060808284031215613d8257613d816138a6565b5b81905092915050565b600060208284031215613da157613da0613614565b5b600082013567ffffffffffffffff811115613dbf57613dbe613619565b5b613dcb84828501613d6c565b91505092915050565b600060208284031215613dea57613de9613614565b5b6000613df884828501613647565b91505092915050565b600081519050613e1081613630565b92915050565b600081519050613e25816138ca565b92915050565b60008060408385031215613e4257613e41613614565b5b6000613e5085828601613e01565b9250506020613e6185828601613e16565b9150509250929050565b600060208284031215613e8157613e80613614565b5b6000613e8f84828501613e01565b91505092915050565b7f4e487b7100000000000000000000000000000000000000000000000000000000600052603260045260246000fd5b600081519050919050565b600082825260208201905092915050565b6000819050602082019050919050565b613efc8161361e565b82525050565b6000613f0e8383613ef3565b60208301905092915050565b6000602082019050919050565b6000613f3282613ec7565b613f3c8185613ed2565b9350613f4783613ee3565b8060005b83811015613f78578151613f5f8882613f02565b9750613f6a83613f1a565b925050600181019050613f4b565b5085935050505092915050565b6000604082019050613f9a60008301856136a6565b8181036020830152613fac8184613f27565b90509392505050565b600067ffffffffffffffff821115613fd057613fcf6136eb565b5b602082029050602081019050919050565b6000613ff4613fef84613fb5565b61374b565b90508083825260208201905060208402830185811115614017576140166138fb565b5b835b81811015614040578061402c8882613e16565b845260208401935050602081019050614019565b5050509392505050565b600082601f83011261405f5761405e6136d0565b5b815161406f848260208601613fe1565b91505092915050565b60006020828403121561408e5761408d613614565b5b600082015167ffffffffffffffff8111156140ac576140ab613619565b5b6140b88482850161404a565b91505092915050565b60008160601b9050919050565b60006140d9826140c1565b9050919050565b60006140eb826140ce565b9050919050565b6141036140fe8261361e565b6140e0565b82525050565b600061411582846140f2565b60148201915081905092915050565b60008060006060848603121561413d5761413c613614565b5b600061414b86828701613cf0565b935050602084013567ffffffffffffffff81111561416c5761416b613619565b5b614178868287016137e8565b925050604061418986828701613a27565b9150509250925092565b600081519050919050565b600081905092915050565b60006141b482614193565b6141be818561419e565b93506141ce818560208601613c42565b80840191505092915050565b60006141e682846141a9565b915081905092915050565b60006060820190506142066000830186613b65565b61421360208301856136a6565b61422060408301846136a6565b949350505050565b7f4e487b7100000000000000000000000000000000000000000000000000000000600052601160045260246000fd5b60006142628261369c565b915061426d8361369c565b925082820190508082111561428557614284614228565b5b92915050565b60006040820190506142a06000830185613b65565b6142ad60208301846136a6565b9392505050565b6000815190506142c381613a10565b92915050565b6000602082840312156142df576142de613614565b5b60006142ed848285016142b4565b91505092915050565b600060408201905061430b6000830185613b65565b6143186020830184613b65565b9392505050565b600082825260208201905092915050565b600061433b82614193565b614345818561431f565b9350614355818560208601613c42565b61435e816136da565b840191505092915050565b61437281613a04565b82525050565b600082825260208201905092915050565b600061439482614193565b61439e8185614378565b93506143ae818560208601613c42565b6143b7816136da565b840191505092915050565b6143cb8161369c565b82525050565b600060a0830160008301516143e96000860182613ef3565b5060208301516143fc6020860182614369565b50604083015161440f6040860182613ef3565b50606083015184820360608601526144278282614389565b915050608083015161443c60808601826143c2565b508091505092915050565b600060808201905081810360008301526144618187614330565b905061447060208301866136a6565b61447d6040830185613b65565b818103606083015261448f81846143d1565b905095945050505050565b6000819050602082019050919050565b60007fffffffffffffffffffffffffffffffffffffffff00000000000000000000000082169050919050565b60006144e282516144aa565b80915050919050565b600082821b905092915050565b600061450382614193565b8261450d8461449a565b9050614518816144d6565b92506014821015614558576145537fffffffffffffffffffffffffffffffffffffffff000000000000000000000000836014036008026144eb565b831692505b5050919050565b7f4661696c656420746f207472616e736665722074617267657420746f6b656e7360008201527f20746f2074686520726563697069656e74206f6e205a657461436861696e0000602082015250565b60006145bb603e83613c31565b91506145c68261455f565b604082019050919050565b600060208201905081810360008301526145ea816145ae565b9050919050565b60006060820190506146066000830186613b65565b6146136020830185613b65565b61462060408301846136a6565b949350505050565b7f4661696c656420746f207472616e73666572205a52432d323020746f6b656e7360008201527f2066726f6d207468652073656e64657220746f2074686520636f6e7472616374602082015250565b6000614684604083613c31565b915061468f82614628565b604082019050919050565b600060208201905081810360008301526146b381614677565b9050919050565b6000819050919050565b600067ffffffffffffffff82169050919050565b60006146f36146ee6146e9846146ba565b613590565b6146c4565b9050919050565b614703816146d8565b82525050565b600060208201905061471e60008301846146fa565b92915050565b600080fd5b600080fd5b600080fd5b600080833560016020038436030381126147505761474f614724565b5b80840192508235915067ffffffffffffffff82111561477257614771614729565b5b60208301925060018202360383131561478e5761478d61472e565b5b509250929050565b600080604083850312156147ad576147ac613614565b5b60006147bb85828601613cf0565b92505060206147cc85828601613cf0565b9150509250929050565b6147df81613872565b81146147ea57600080fd5b50565b6000815190506147fc816147d6565b92915050565b60006020828403121561481857614817613614565b5b6000614826848285016147ed565b91505092915050565b600080fd5b600080fd5b6000808585111561484d5761484c61482f565b5b8386111561485e5761485d614834565b5b6001850283019150848603905094509492505050565b7f54686520696e70757420616d6f756e74206973206c657373207468616e20746860008201527f65206d696e20616d6f756e7420726571756972656420746f20636f766572207460208201527f6865207769746864726177206761732066656500000000000000000000000000604082015250565b60006148f6605383613c31565b915061490182614874565b606082019050919050565b60006020820190508181036000830152614925816148e9565b9050919050565b60006149378261369c565b91506149428361369c565b925082820390508181111561495a57614959614228565b5b92915050565b600060a08201905061497560008301886136a6565b61498260208301876136a6565b81810360408301526149948186613f27565b90506149a36060830185613b65565b6149b060808301846136a6565b9695505050505050565b6000602082840312156149d0576149cf613614565b5b60006149de84828501613e16565b91505092915050565b60006149f382856140f2565b601482019150614a0382846140f2565b6014820191508190509392505050565b600081905092915050565b7fff00000000000000000000000000000000000000000000000000000000000000600082015250565b6000614a54600183614a13565b9150614a5f82614a1e565b600182019050919050565b6000819050919050565b614a85614a8082613872565b614a6a565b82525050565b7f96e8ac4277198ff8b6f785478aa9a39f403cb768dd02cbee326c3e7da348845f600082015250565b6000614ac1602083614a13565b9150614acc82614a8b565b602082019050919050565b6000614ae282614a47565b9150614aee82856140f2565b601482019150614afe8284614a74565b602082019150614b0d82614ab4565b91508190509392505050565b60006dffffffffffffffffffffffffffff82169050919050565b614b3c81614b19565b8114614b4757600080fd5b50565b600081519050614b5981614b33565b92915050565b600063ffffffff82169050919050565b614b7881614b5f565b8114614b8357600080fd5b50565b600081519050614b9581614b6f565b92915050565b600080600060608486031215614bb457614bb3613614565b5b6000614bc286828701614b4a565b9350506020614bd386828701614b4a565b9250506040614be486828701614b86565b9150509250925092565b7f4e487b7100000000000000000000000000000000000000000000000000000000600052601260045260246000fd5b6000614c288261369c565b9150614c338361369c565b925082614c4357614c42614bee565b5b82820490509291505056fea264697066735822122013b491b505a531664b8300e764c381d2386128f8f59957d486ccb8f262564cd864736f6c634300081a0033",
  "linkReferences": {},
  "deployedLinkReferences": {}
}